:100000000C9451060C9498060C9498060C9498063F
:100010000C9498060C9498060C9498060C949806E8
:100020000C9498060C9498060C94D62C0C94A82D3D
:100030000C94171F0C9498060C9498060C94980630
:100040000C9498060C9498060C9498060C949806B8
:100050000C9498060C948B1F0C9498060C9498069C
:100060000C9498060C9498060C9498060C94980698
:100070000C9498060C9498060C9498060C94980688
:100080000C9498060C9498060C9498060C94980678
:100090000C9498060C9498060C9498060C94980668
:1000A0000C9498060C9498060C9498066F146F1490
:1000B000A114A114EE140C15641664164E15E31564
:1000C000F415F4155416641664165D16EA16EA164D
:1000D000FC16FC16F316FC16FC16FC16EA16EA16BD
:1000E000F816FC16FC16F816152E3C2E342F3C2E56
:1000F000342F882EAB2E342F022F112FAC00AE00E0
:10010000AB00AD0000000000530054005500560045
:10011000A80000005F006000610000000000000017
:100120005C005D005E0057000000000059005A00AE
:100130005B00000000000000000062006300580047
:1001400001580258010001000100010000000000F8
:100150000100010001000100010000001E0D1F0D43
:10016000200D000000000000210D220D230D0100D4
:1001700000000000240D250D260D000000000000E9
:100180000000270D0100005C0100010001000100DA
:100190000100010000000000010001000100010059
:1001A00001000000040D050D060D00000000000018
:1001B000070D080D090D0100000000000A0D0B0DD0
:1001C0000C0D00000000000000000D0D0100005C9F
:1001D0000100010044454255473A20646973616259
:1001E0006C65642E0A0044454255473A20656E61AD
:1001F000626C65642E0A000A0025303862003A20DD
:100200000025303258000A722F63203031323334E7
:100210003536370A000A002530325820006B6579E0
:10022000626F6172645F7265706F72743A20000A67
:100230000025303258006B6579626F6172645F73BC
:1002400065745F6C65643A2000290A002575002FEB
:10025000002575005D28002564002000256400202D
:100260000025640020002564007C00253032580001
:100270006D6F7573656B6579205B62746E7C782039
:1002800079207620685D287265702F61636C293A49
:10029000205B006D6B5F776865656C5F74696D6589
:1002A0005F746F5F6D6178203D2025640A006D6B7F
:1002B0005F776865656C5F6D61785F7370656564B5
:1002C000203D2025640A006D6B5F74696D655F7465
:1002D0006F5F6D6178203D2025640A006D6B5F6D56
:1002E00061785F7370656564203D2025640A006D48
:1002F0006B5F696E74657276616C203D2025640ABF
:10030000006D6B5F64656C6179203D2025640A0097
:100310006D6B5F776865656C5F74696D655F746F41
:100320005F6D6178203D2025640A006D6B5F776802
:1003300065656C5F6D61785F7370656564203D20F5
:1003400025640A006D6B5F74696D655F746F5F6D26
:100350006178203D2025640A006D6B5F6D61785FD8
:100360007370656564203D2025640A006D6B5F69CC
:100370006E74657276616C203D2025640A006D6B99
:100380005F64656C6179203D2025640A000A0025C0
:100390007500363A20776865656C5F74696D655FD6
:1003A000746F5F6D61783A20000A00257500353A58
:1003B00020776865656C5F6D61785F7370656564F3
:1003C0003A20000A00257500343A2074696D655F93
:1003D000746F5F6D61783A20000A00257500333A2A
:1003E000206D61785F73706565643A20000A0025AE
:1003F0007500323A20696E74657276616C286D738F
:10040000293A20000A00257500313A2064656C61A4
:1004100079282A31306D73293A20000A092D205697
:10042000616C756573202D0A004D3E004D25643EBC
:1004300020003F007365742064656661756C740A02
:1004400000433E200077686572652064656C7461C6
:100450003A20637572736F723D25642C207768654E
:10046000656C3D25640A53656520687474703A2F85
:100470002F656E2E77696B6970656469612E6F7286
:10048000672F77696B692F4D6F7573655F6B657942
:10049000730A000A092D204D6F7573656B6579200D
:1004A0002D0A4553432F713A09717569740A313A1F
:1004B0000964656C6179282A31306D73290A323AF2
:1004C00009696E74657276616C286D73290A333A16
:1004D000096D61785F73706565640A343A097469FF
:1004E0006D655F746F5F6D61780A353A097768658D
:1004F000656C5F6D61785F73706565640A363A0993
:10050000776865656C5F74696D655F746F5F6D6159
:10051000780A0A703A097072696E742076616C7597
:1005200065730A643A097365742064656661756C65
:1005300074730A75703A092B310A646F776E3A0941
:100540002D310A706775703A092B31300A70676473
:100550006F776E3A092D31300A0A73706565642031
:100560003D2064656C7461202A206D61785F737032
:10057000656564202A2028726570656174202F20CB
:1005800074696D655F746F5F6D6178290A003F0063
:100590004D3E2000433E20004C25640A0074696DE6
:1005A00065725F72656164333228293A20253034E0
:1005B0006C580A006B6579626F6172645F69646C84
:1005C000653A2025580A006B6579626F6172645F35
:1005D00070726F746F636F6C3A2025580A00686FF1
:1005E00073745F6B6579626F6172645F6C6564736D
:1005F00028293A2025580A000A092D2053746174CD
:100600007573202D0A004743433A20352E342E308F
:10061000204156522D4C4942433A20322E302E3042
:10062000204156525F415243483A20617672350A62
:10063000004F5054494F4E533A204C554641204D9F
:100640004F5553454B45592045585452414B4559F8
:1006500020434F4E534F4C4520434F4D4D414E4448
:1006600020343039360A004255494C443A20223071
:100670002E372E31343322202831373A35373A3469
:1006800034204D61722032392032303230290A0054
:100690005649443A20307846454544287265766587
:1006A000726535323129205049443A20307836304D
:1006B000363028756C746970616429205645523A49
:1006C000203078303030310A00444553433A2032EC
:1006D00033206B6579206E756D6265727061642F71
:1006E0006D6163726F706164207769746820726FE6
:1006F0007461727920656E636F6465720A000A091D
:100700002D2056657273696F6E202D0A000A092D1F
:1007100020436F6E736F6C65202D0A4553432F7114
:100720003A09717569740A6D3A096D6F7573656B75
:1007300065790A000A092D204D61676963202D0A39
:10074000443A094465627567204D65737361676556
:1007500020546F67676C650A583A094D6174726975
:1007600078204465627567204D6F646520546F671B
:10077000676C65202D2053686F77206B65797072E8
:10078000657373657320696E206D6174726978207A
:10079000677269640A4B3A094B6579626F617264EA
:1007A00020446562756720546F67676C65202D2053
:1007B00053686F77206B657970726573732072650B
:1007C000706F72740A4D3A094465627567204D6F07
:1007D00075736520546F67676C650A563A095665EC
:1007E0007273696F6E0A533A095374617475730AB0
:1007F000433A09416374697661746520436F6E738F
:100800006F6C65204D6F64650A46312D4631303A74
:100810000953776974636820746F204C617965723D
:1008200020302D392028463130203D204C30290AF7
:10083000302D393A0953776974636820746F204CFE
:100840006179657220302D390A47524156453A097F
:1008500053776974636820746F204C6179657220E6
:10086000302028616C7465726E617465290A423AA1
:10087000094A756D7020746F20426F6F746C6F61E0
:100880006465720A4553433A094A756D7020746F66
:1008900020426F6F746C6F616465722028616C74A4
:1008A00065726E617465290A453A095072696E7401
:1008B00020454550524F4D2053657474696E6773DF
:1008C0000A4253504143453A09436C6561722045E1
:1008D0004550524F4D0A000A002575002E6E6B726E
:1008E0006F3A20000A002575002E737761705F62F1
:1008F00061636B736C6173685F6261636B7370617A
:1009000063653A20000A002575002E737761705FD9
:1009100067726176655F6573633A20000A0025752A
:10092000002E6E6F5F6775693A20000A002575001A
:100930002E737761705F72616C745F726775693A6C
:1009400020000A002575002E737761705F6C616C62
:10095000745F6C6775693A20000A002575002E7374
:100960007761705F7263746C5F726775693A2000BB
:100970000A002575002E737761705F6C63746C5F7D
:100980006C6775693A20000A002575002E63617056
:10099000736C6F636B5F746F5F636F6E74726F6C99
:1009A0003A20000A002575002E737761705F636F2F
:1009B0006E74726F6C5F636170736C6F636B3A20FF
:1009C000000A0025303258006B65796D61705F63F5
:1009D0006F6E6669672E7261773A20000A0025758E
:1009E000002E6D6F7573653A20000A002575002E84
:1009F0006B6579626F6172643A20000A00257500A8
:100A00002E6D61747269783A20000A002575002EF7
:100A1000656E61626C653A20000A0025303258002C
:100A200064656275675F636F6E6669672E72617772
:100A30003A20000A0025750064656661756C745F74
:100A40006C617965723A20003F000A6D6F757365BD
:100A50003A206F66660A000A6D6F7573653A206FFB
:100A60006E0A000A6B6579626F6172643A206F6684
:100A7000660A000A6B6579626F6172643A206F6E74
:100A80000A000A6D61747269783A206F66660A001E
:100A90000A6D61747269783A206F6E0A000A6465A3
:100AA0006275673A206F66660A000A646562756758
:100AB0003A206F6E0A000A0A4A756D70696E6720E7
:100AC000746F20626F6F746C6F616465722E2E2E6E
:100AD0002000433E2000436C656172696E672045CB
:100AE0004550524F4D0A006565636F6E6669673AFF
:100AF0000A005B735D004B6579626F6172642073FD
:100B0000746172742E0A005B575D005B535D005B7D
:100B1000525D005B445D005B435D000403300000F8
:100B200000100375006C00740069007000610064BF
:100B30000000001403720065007600650072006515
:100B40000035003200310000000403090409025B93
:100B500000030100A0FA09040000010301010009DB
:100B600021110100012240000705810308000A0944
:100B70000401000103000000092111010001228588
:100B8000000705820320000A090402000203000096
:100B90000009211101000122220007058303200022
:100BA00001070503032000011201100100000008E5
:100BB000EDFE60600100010203010631FF0974A12E
:100BC000010975150026FF00952075088102097638
:100BD000150026FF00952075089102C00501090245
:100BE000A10185020901A1000509190129051500C6
:100BF00025019505750181029501750381010501A6
:100C0000093009311581257F95027508810609385B
:100C10001581257F950175088106050C0A38021596
:100C200081257F950175088106C0C005010980A155
:100C30000185031A81002A8300160100260300950E
:100C40000175108100C0050C0901A10185041A017C
:100C5000002A9C02160100269C0295017510810055
:100C6000C005010906A101050719E029E7150025BE
:100C70000195087501810295017508810105071923
:100C80000029FF150026FF0095067508810005085C
:100C900019012905950575019102950175039101C9
:100CA000C00011241FBECFEFDAE0DEBFCDBF04B617
:100CB00003FE27C08091880290918902A0918A0248
:100CC000B0918B028730904BA740B04BD1F410927B
:100CD00088021092890210928A0210928B0214BE2E
:100CE00084B7877F84BF0FB6F894A8958091600081
:100CF000886180936000109260000FBEE0E0F8E32E
:100D0000099511E0A0E0B1E0EEE0F0E602C0059048
:100D10000D92AA3AB107D9F722E0AAEAB1E001C0E0
:100D20001D92A838B207E1F70E94FC290C94053007
:100D30000C940000FF93EF93E091AA01F091AB01B6
:100D4000309709F00995EF91FF910895FC01859185
:100D5000803011F0EFDFFBCF0895FF27E0E230E2B3
:100D600047FF0CC0419597FF09C0EDE26095709573
:100D700080959095611D711D811D911D27FF02C0F9
:100D8000219530E350E2AA27660F771F881F991F2D
:100D9000AA1FA41710F0A41B63955A95A9F7AA30AF
:100DA00008F0A95FA05DAF93F3956115710581050A
:100DB000910541F7ED3211F4EF93F395F21718F422
:100DC0003F93F395FBCF8F91B5DFFA95E1F7089547
:100DD000E991F9918591803021F0853219F0AADFEF
:100DE000F9CF089520E0E89455915532C1F350337E
:100DF00011F4689455915A3348F4505390F3220FEC
:100E0000022E220F220F200D250FF4CF0EF4219574
:100E100089919991533619F3533729F1533559F183
:100E2000BC0188279927E8945C3621F4899199912F
:100E300068945591543639F446EF7EF077FF0DC033
:100E40008FEF9FEF0AC055374AE039F0583540E13F
:100E500021F0523642E009F00895FF93EF937DDFD1
:100E6000EF91FF91B7CFFF93EF93FC018191803019
:100E7000B9F360DFFBCFFF93EF9368DFF1CFDF9330
:100E8000CF93CDB7DEB72596A3DFCF91DF9108953D
:100E900081E00895CF92DF92EF92FF926B017C0187
:100EA0000E94731D813041F020F0823031F42A9A83
:100EB00004C02A982E9801C02E9AC701B601FF904F
:100EC000EF90DF90CF900895229A269A0895089582
:100ED00008950895239A80FF02C02B9A08952B98B5
:100EE0000895CF93811113C0C62F6091360270917F
:100EF000370280913802909139020E94731DCC23F1
:100F000011F089EA01C08AEACF910C941C14CF91A8
:100F1000089581E008950C9448071F93CF93DF93C1
:100F200000D000D01F92CDB7DEB749835A836B83C0
:100F30002091E40189819A81211112C0662349F030
:100F40000E943C1C182F682F89819A810E94E31B04
:100F500003C00E940F1C182F69817A81812F04C061
:100F60000E943C1C69817A810F900F900F900F9026
:100F70000F90DF91CF911F910C947E08FC0140816E
:100F800051816281738184810C948D070E94280BAA
:100F90008FE39CE90197F1F700C000000E94280B45
:100FA00084E00E94880A81FF04C00E94D51D0C9431
:100FB000B11F08950E94C6070E94DB1D811102C067
:100FC0000E947B1E0E94860F0C94D60A0E949D0FE1
:100FD0000C94D40A0C946A0781E008950C94EC07F1
:100FE000CF93C82F0E94EA078C2F0E94EE07CF9163
:100FF00008950E94D8160E9467072FEF84E39CE0B3
:10100000215080409040E1F700C0000087E797E75B
:1010100090930108809300080C94B11F0F931F93C5
:10102000CF93DF9300D0CDB7DEB78C010E94BE070F
:101030009A838983B801CE0101960E94ED0B882323
:1010400009F44FC0B80189819A810E948B078823D7
:1010500009F447C0B80189819A810E945A108823F7
:1010600009F43FC0B80189819A810E949B108823AE
:10107000C1F1B80189819A810E94C611882389F142
:10108000F8018281882341F189819A8181302CE5A0
:10109000920751F08F3DECE59E07D9F081159C45F4
:1010A000D9F40E94F9071DC080914B02182F1095AA
:1010B000117010FB80F980934B02112329F086EE0A
:1010C00091E00E94A6060DC084ED91E00E94A60664
:1010D00009C00E947B1E05C0C8010E948907182F05
:1010E00001C010E0812F0F900F90DF91CF911F91E1
:1010F0000F91089580E090E00895089524E2829F82
:10110000C0011124FC0126E0729FE00DF11D1124A5
:10111000E60FF11DEE0FFF1FE450FF4F85919491F4
:101120000895880F991FFC01E950FE4F8591949115
:101130000895CF93DF930E947E080E94B109EC01CD
:101140008115904508F041C0C11580E4D80708F02A
:10115000D1C0C83ED10510F5C03ED10508F0FDC094
:10116000C83AD10578F4C53AD10508F0A2C0C1301B
:10117000D10509F4F2C008F4EEC0C430D10508F07E
:10118000ECC0E9C0CF3BD10508F49BC0C03CD10501
:1011900008F4E1C0CE01805C91099EC0C11590E2C7
:1011A000D90758F4C11521E0D20708F0D6C0C03FD6
:1011B000D10508F4D0C0D065D0C0C11580E3D807F0
:1011C00008F08EC0CE019F7087C0C11595E5D90784
:1011D00008F043C0C11524E5D20708F0A2C0C1152C
:1011E00082E5D80708F5C11591E5D90708F085C053
:1011F000CE0174E0969587957A95E1F783709C2FE0
:10120000937021E030E002C0220F331F9A95E2F77D
:101210003C68382BCF70C695C69580E2C89FE00128
:101220001124C22BD32B99C09E01237033278C2FFE
:1012300086958695C115D34508F064C0C1E0D0E01D
:1012400002C0CC0FDD1F2A95E2F720E2829FC00189
:101250001124C82BD92BDC6880C0C11529E5D20721
:10126000A0F4C11588E5D80708F060C0C11596E55F
:10127000D90708F070C08C2F0E94450A8F71C82FC3
:10128000D0E0DC2FCC27D06268C0C1152AE5D20798
:1012900008F451C0CE0190568115904208F05BC011
:1012A0008D2F8F710E94450ADD27D0628F71D82B58
:1012B00054C0C55AD0E0CF5BDE4FC881D0E0D064C7
:1012C0004CC0C85AD0E0CC0FDD1FCD5EDE4F099078
:1012D000D881C02DD46441C00E949108EC013DC06A
:1012E000CE019927D3FF03C0EC01D86C36C0EC01C6
:1012F000D06C33C0DF70D06A30C0DC2FCC27C16F18
:10130000D06A2BC0C1E0D0E002C0CC0FDD1F2A950F
:10131000E2F720E2829FC0011124C82BD92BDA68A2
:101320001CC0DC2FCC27C46FD06A17C0DC2FCC27A1
:10133000C06FD06A12C08C2F8F700E94450A94E053
:10134000D695C7959A95E1F7CF70D0E0DC2FCC27E2
:10135000D069C82B02C0C0E0D0E0CE01DF91CF91B0
:1013600008958238910569F1B0F48133910509F44B
:101370006DC048F48932910509F463C08A32910541
:1013800009F469C008958533910509F455C089337E
:101390009105B9F00895833E910569F138F4803ED6
:1013A0009105B1F0823E910509F10895863E9105BF
:1013B000A9F1873E9105B9F1843E910509F064C019
:1013C00023C02091790220FD4FC021FD4DC008951A
:1013D0008091790280FD44C080917A0280FF44C0F0
:1013E0008091790284FD42C083EE4DC080917902E4
:1013F00082FF38C0F5CF8091790282FD33C08091A1
:101400007A0280FD31C0ECCF80917A0281FF32C038
:101410008091790284FD2AC087EE35C080917902DF
:1014200083FF26C0F5CF8091790283FD21C0809192
:101430007A0281FD1FC0ECCF8091790285FD1CC02E
:101440001DC08091790285FD19C016C08091790276
:1014500086FD16C017C08091790286FD13C010C0AA
:1014600089E311C082EE0FC080EE0DC080E00BC09A
:1014700086EE09C084EE07C089E205C085E303C09B
:101480008AE201C081E390E008959091790292FF91
:101490000DC0282F2871283019F4877F846006C07A
:1014A000282F2471243011F48B7F886093FF0DC0A6
:1014B000282F2871283119F4877E846106C0282FCF
:1014C0002471243111F48B7E886120917A0220FFEF
:1014D0000DC0382F3871383019F4877F816006C00D
:1014E000382F3171313011F48E7F886021FF0DC0AB
:1014F000282F2871283119F4877E816106C0282F92
:101500002171213111F48E7E886194FD877E0895CA
:10151000E82FF0E0E359FD4F80810895CF92DF92EC
:10152000EF92FF920F931F93CF93DF9386E092E0A9
:101530000E94A6068DE6E82E82E0F82EC0E0D0E0FC
:1015400091E0C92E92E0D92E09EF11E0DF93CF93FD
:10155000DF92CF920E943F078EEF91E00E94A60695
:10156000F70181917F010E94C31D1F928F931F93EA
:101570000F930E943F0787EF91E00E94A6062196F5
:101580008DB79EB708960FB6F8949EBF0FBE8DBF5D
:10159000C630D105D9F6DF91CF911F910F91FF9001
:1015A000EF90DF90CF9008950C9469070C94680732
:1015B000CF93DF93AAE4B1E040E551E061E070E051
:1015C0008D91E82FE295EF70F0E021A18F70EB0193
:1015D00002C0CC0FDD1F8A95E2F7CE019C2F9095BB
:1015E000922391A392A1892B82A34A175B0741F70B
:1015F000A4E4B1E04AE451E061E070E08D91E82FAD
:10160000E295EF70F0E021A18F70EB0102C0CC0FEA
:10161000DD1F8A95E2F7CE019C2F9095922391A32E
:1016200092A1892B82A34A175B0741F7E7E6F2E014
:10163000ADE6B2E08DE692E011921D928E179F0703
:10164000D9F786E00E94B60BDF91CF910C94DA07B0
:101650005F926F927F928F929F92AF92BF92CF9242
:10166000DF92EF92FF920F931F93CF93DF936AE481
:1016700071E0A7E6B2E02DE6A22E22E0B22E612CA8
:1016800001E010E06D015C901C92EB018991BE01BC
:10169000E82FE295EF70F0E021A18F70A80102C061
:1016A000440F551F8A95E2F7CA01242B21A322A1DA
:1016B000942E9094292122A350EA5A95F1F794E4AC
:1016C000E92E91E0F92E40E050E0E70189907E019B
:1016D000282D22952F7030E0E90128A17C9030E080
:1016E000D82DDF7002C035952795DA95E2F720FDF9
:1016F00008C0302F042E01C0330F0A94EAF7232FBD
:1017000001C020E027292C934F5F5F4F46305105E1
:10171000E1F691A1992291A292A1892B82A311961F
:1017200081E0F6019081951101C080E0682AAA1637
:10173000BB0609F0A7CF262D46E06DE672E087E6EE
:1017400092E00E94B70B0E94E607862DDF91CF91B1
:101750001F910F91FF90EF90DF90CF90BF90AF90CF
:101760009F908F907F906F905F9008950895FF9263
:101770000F931F93CF93DF938C01F62ED72FC42F97
:10178000222349F081E08093AE010E94491F90938B
:10179000AD018093AC018091AE018823C1F08091AE
:1017A000AC019091AD010E94611F069780F0EF2D72
:1017B000FD2FD8014C2F50E0CD01801B910B8417D9
:1017C00095071CF48D918193F7CF1092AE01DF91B4
:1017D000CF911F910F91FF9008958F929F92AF929A
:1017E000BF92CF92DF92EF92FF920F931F93CF930E
:1017F000DF937C01DC01ED91FC91CF018150954597
:101800008F3F910510F4B5E5FB27DB011296CC91D3
:10181000CC2309F4B4C2EF3FF10579F070F0EE3D4E
:10182000FC4519F01092AF0160C39091AF0181E0C7
:1018300089278093AF01A0E059C3A091AF01AA23EB
:1018400009F4EBC01092AF01E03CF10540F4E03840
:10185000F10508F073C0E034F105D0F505C0EF3FA5
:10186000F10509F008F4A0C021E030E040E050E0CC
:1018700060E070E080E090E00E2F0E948D2FB0912C
:10188000B0012B2BB091B1013B2BB091B2014B2B8E
:10189000B091B3015B2BB091B4016B2BB091B5014A
:1018A0007B2BB091B6018B2BB091B7019B2B209372
:1018B000B0013093B1014093B2015093B3016093F2
:1018C000B4017093B5018093B6019093B701A1C0A4
:1018D00021E030E040E050E060E070E080E090E047
:1018E0008F01005411090E948D2FB091B8012B2B4C
:1018F000B091B9013B2BB091BA014B2BB091BB0118
:101900005B2BB091BC016B2BB091BD017B2BB091D7
:10191000BE018B2BB091BF019B2B2093B80130935C
:10192000B9014093BA015093BB016093BC0170931D
:10193000BD018093BE019093BF016BC021E030E0F8
:1019400040E050E060E070E080E090E08F010058FF
:1019500011090E948D2FB091C0012B2BB091C101B4
:101960003B2BB091C2014B2BB091C3015B2BB091CB
:10197000C4016B2BB091C5017B2BB091C6018B2BA1
:10198000B091C7019B2B2093C0013093C1014093BC
:10199000C2015093C3016093C4017093C501809349
:1019A000C6019093C70135C021E030E040E050E02F
:1019B00060E070E080E090E08F01005C11090E941F
:1019C0008D2FB091C8012B2BB091C9013B2BB09149
:1019D000CA014B2BB091CB015B2BB091CC016B2B8F
:1019E000B091CD017B2BB091CE018B2BB091CF016B
:1019F0009B2B2093C8013093C9014093CA01509397
:101A0000CB016093CC017093CD018093CE01909374
:101A1000CF01E701F983E88369C2E034F105D0F42E
:101A2000A090B001B090B101C090B201D090B301CC
:101A3000E090B401F090B501B091B6011091B701FA
:101A400021E030E040E050E060E070E080E090E0D5
:101A50000E2F5DC0E038F105E8F4A090B801B09019
:101A6000B901C090BA01D090BB01E090BC01F090E8
:101A7000BD01B091BE011091BF0121E030E040E016
:101A800050E060E070E080E090E04F01D0E48D1A1B
:101A900091083CC0E03CF105E8F4A090C001B09092
:101AA000C101C090C201D090C301E090C401F09088
:101AB000C501B091C6011091C70121E030E040E0BE
:101AC00050E060E070E080E090E04F01D0E88D1AD7
:101AD00091081CC0A090C801B090C901C090CA0173
:101AE000D090CB01E090CC01F090CD01B091CE012F
:101AF0001091CF0121E030E040E050E060E070E084
:101B000080E090E04F01D0EC8D1A9108082D0E94E2
:101B10008D2FA222B322C422D522E622F722B82397
:101B2000192321E030E040E050E060E070E080E028
:101B300090E0E034F105A0F04F01E038F10520F429
:101B4000D0E48D1A91080AC0E03CF10520F4D0E8F9
:101B50008D1A910803C0D0EC8D1A9108082D01C090
:101B60000E2F0E948D2F0B2F0E94A62F09F0BDC1B2
:101B7000E03CF10548F4E038F10508F084C0E034B9
:101B8000F10508F042C005C0EF3FF10509F008F487
:101B9000B8C021E030E040E050E060E070E080E07C
:101BA00090E00E2F0E948D2F2095309540955095F6
:101BB0006095709580959095E091B0012E23E0910D
:101BC000B1013E23E091B2014E23E091B3015E23C7
:101BD000E091B4016E23E091B5017E23E091B6015E
:101BE0008E23E091B7019E232093B0013093B10181
:101BF0004093B2015093B3016093B4017093B50167
:101C00008093B6019093B70171C18F0100541109FF
:101C100021E030E040E050E060E070E080E090E003
:101C20000E948D2F20953095409550956095709528
:101C300080959095E091B8012E23E091B9013E2363
:101C4000E091BA014E23E091BB015E23E091BC011B
:101C50006E23E091BD017E23E091BE018E23E091D1
:101C6000BF019E232093B8013093B9014093BA017C
:101C70005093BB016093BC017093BD018093BE0182
:101C80009093BF0133C18F010058110921E030E06A
:101C900040E050E060E070E080E090E00E948D2F36
:101CA00020953095409550956095709580959095CC
:101CB000E091C0012E23E091C1013E23E091C201D9
:101CC0004E23E091C3015E23E091C4016E23E091B5
:101CD000C5017E23E091C6018E23E091C7019E23BA
:101CE0002093C0013093C1014093C2015093C301BE
:101CF0006093C4017093C5018093C6019093C7019E
:101D0000F5C08F01005C110921E030E040E050E0B7
:101D100060E070E080E090E00E948D2F209530958B
:101D2000409550956095709580959095E091C8018B
:101D30002E23E091C9013E23E091CA014E23E09198
:101D4000CB015E23E091CC016E23E091CD017E2397
:101D5000E091CE018E23E091CF019E232093C80114
:101D60003093C9014093CA015093CB016093CC01D9
:101D70007093CD018093CE019093CF01B7C0EF3F18
:101D8000F10511F008F0AEC0E034F105D0F4C090D8
:101D9000B001D090B101E090B201F090B301109188
:101DA000B401C091B501B091B601A091B70121E095
:101DB00030E040E050E060E070E080E090E00E2F26
:101DC0005DC0E038F105E8F4C090B801D090B901E9
:101DD000E090BA01F090BB011091BC01C091BD012F
:101DE000B091BE01A091BF0121E030E040E050E0A1
:101DF00060E070E080E090E05F01D0E4AD1AB108EF
:101E00003CC0E03CF105E8F4C090C001D090C101B5
:101E1000E090C201F090C3011091C401C091C501CE
:101E2000B091C601A091C70121E030E040E050E050
:101E300060E070E080E090E05F01D0E8AD1AB108AA
:101E40001CC0C090C801D090C901E090CA01F090B8
:101E5000CB011091CC01C091CD01B091CE01A091E8
:101E6000CF0121E030E040E050E060E070E080E051
:101E700090E05F01D0ECAD1AB1080A2D0E948D2FC1
:101E8000A22EAC20B32EBD20C42ECE20D52EDF2016
:101E9000E62EE122F72EFC22B823192F1A23E03474
:101EA000F10570F0E038F10518F4E054F10908C0CC
:101EB000E03CF10518F4E058F10902C0E05CF109DA
:101EC00021E030E040E050E060E070E080E090E051
:101ED0000E2F0E948D2FA1E00B2F0E94A62F19F428
:101EE000A0E001C0A1E0A17001C0AC2F8A2FDF915A
:101EF000CF911F910F91FF90EF90DF90CF90BF9007
:101F0000AF909F908F9008950C94710786988E9A49
:101F100087988F9A8FB186FB882780F92FB130E0A0
:101F2000220F232F221F330B232B11F490E001C02B
:101F300092E0892B8093D2010895E091D201EE0FB7
:101F4000EE0FE093D2012FB126FB882780F990E0B5
:101F50002FB130E0220F232F221F330B2115310523
:101F600011F022E030E0822B932B8E2B8093D20154
:101F70008F70E82FF0E0E05BFE4F90818091D101FF
:101F8000890F8093D10184304CF08091D0018F5F14
:101F90008093D00161E080E00E94840F8091D101A4
:101FA0008D3F4CF48091D00181508093D00160E04E
:101FB00080E00E94840F8091D101837887FF03C065
:101FC00081508C6F8F5F8093D10108950F931F9381
:101FD000CF93DF93C62FD42F122FFC018281882349
:101FE000C9F06093D5010E94491F9093D40180935A
:101FF000D30180E28C0F883008F057C0C77081E0B1
:1020000001C0880FCA95EAF7DF91CF911F910F9118
:102010000C942F148091D501681330C08091D301A6
:102020009091D4010E94611F883C910538F500E22F
:102030000D0FCD17B9F080E28C0F883040F4C770D7
:1020400081E001C0880FCA95EAF70E943614083073
:1020500028F581E09D2F977001C0880F9A95EAF7C7
:102060000E942F14812F0E941C140830F0F4D770A6
:1020700081E001C0880FDA95EAF70AC080E28C0F90
:10208000883098F4C77081E001C0880FCA95EAF7DC
:10209000DF91CF911F910F910C943614812FDF9116
:1020A000CF911F910F910C941C14DF91CF911F9130
:1020B0000F9108959C01CB01243F4CE53407F9F0C2
:1020C00078F4283DFCE53F07B9F0293D4CE534079D
:1020D00011F1273D3C4531F526E241EE61EE1EC08F
:1020E000263FFCE53F0799F070F0273F3C45D1F4CF
:1020F00027E245EE66EE12C027E245EE0EC026E26C
:1021000041EE60EE0BC027E245EE64EE07C026E22A
:1021100041EE62EE03C028E241E065EE0E94E60F68
:1021200080E00895FC018281882319F01092D50186
:10213000089581E00895CF93DF93EC01FB01828144
:10214000882309F41FC1C230FCE5DF0708F41BC176
:10215000C6319CE5D90738F09E012B5F3C452930FC
:10216000310508F010C10E94EE1D90937A02809311
:102170007902C031ECE5DE0709F4C3C008F041C0C4
:10218000C8308CE5D80709F49AC0F0F4C430ECE507
:10219000DE0709F487C068F4C2308CE5D80709F47B
:1021A00077C0C330DC4509F0E3C0809179028260DA
:1021B00076C0C630ECE5DE0709F46EC008F07BC0DF
:1021C0008091790288606BC0CC308CE5D80709F427
:1021D00085C068F4CA30ECE5DE0709F474C008F085
:1021E00079C00E94D81680917902806858C0CE309C
:1021F0008CE5D80709F476C008F07FC08091790299
:102200008BC0CC3FECE5DE0709F44FC018F5C331B5
:102210008CE5D80709F47DC078F4C131ECE5DE0720
:1022200009F473C0C231DC4509F0A2C00E94D8167F
:10223000809179028F7733C0C5318CE5D80709F4D6
:1022400072C008F486C0CB3FDC4509F091C0809194
:102250007A023EC0C115FDE5DF0709F45FC058F4FE
:10226000CE3F9CE5D90709F444C008F43FC08091F3
:102270007A0282602DC0C230FDE5DF0709F475C027
:1022800008F45DC0C330DD4509F072C080E06EC067
:1022900080917902816003C080917902806180938E
:1022A000790266C08091790211C080917A028260C1
:1022B00080937A025DC0809179028062F0CF809134
:1022C00079028064ECCF8091790288608460E7CFE6
:1022D0008160EECF809179028E7FE1CF809179028B
:1022E0008D7FDDCF80917902877FD9CF80917A026F
:1022F00018C080917A028D7FDBCF809179028F7E2A
:10230000CECF809179028F7DCACF809179028F7B69
:10231000C6CF80917902877F8B7FC1CF80917A026F
:102320008D7F8E7FC5CF8091790282FB222720F995
:1023300091E0922790FB82F990FB83F9B0CF8091D6
:102340007A02982F909591708E7F892B90FB81F95E
:10235000AFCF0E94D8168091790287FB222720F9FF
:1023600091E0922790FB87F99ACF81E00E947D1E31
:102370008091790290917A020E94FF1D0E94D816E6
:1023800080E001C081E0DF91CF910895CF93DF938A
:1023900086319C4541F5EB010E94BD1C982F8A8136
:1023A0002091000130910101882379F09A7A81E02F
:1023B00009F480E08093D601911102C069E201C066
:1023C00065E3C9010E94B51E0AC08091D601811142
:1023D00002C069E201C065E3C9010E94B71E0E9404
:1023E0000B1D80E001C081E0DF91CF9108959093B3
:1023F000DC018093DB010895E091DB01F091DC01C9
:10240000309721F00190F081E02D099480E008954B
:10241000EF92FF920F931F93CF93DF93E091DB0135
:10242000F091DC013097B1F18C010280F381E02D55
:10243000099580914B0282FF2DC080FF04C08DE181
:1024400092E00E94A606E80118E087E1E82E82E00B
:10245000F82E80914B0280FF0BC088811F928F93D2
:10246000FF92EF920E943F070F900F900F900F90F6
:10247000115021961111EDCF80914B0280FF0AC0BF
:1024800085E192E0DF91CF911F910F91FF90EF9046
:102490000C94A606DF91CF911F910F91FF90EF90C2
:1024A0000895E091DB01F091DC01309739F022E0F2
:1024B000DC012C930480F581E02D0994089520918E
:1024C000D9013091DA012817390771F09093DA01B8
:1024D0008093D901E091DB01F091DC01309721F08C
:1024E0000680F781E02D099408952091D70130915D
:1024F000D8012817390771F09093D8018093D7013C
:10250000E091DB01F091DC01309721F00084F1854E
:10251000E02D0994089585B7806885BF85B78068E8
:1025200085BF089508950C9492120C9493120C9404
:1025300092120C9464070E948B120E9497120C94C2
:10254000951281E008950E94401F0E94D80A0E94BF
:10255000C21F0C949912CF93C82F80914B0282FF17
:102560001EC080FF04C086E392E00E94A606809110
:102570004B0280FF0CC01F92CF9381E392E09F93A8
:102580008F930E943F070F900F900F900F908091B4
:102590004B0280FF04C08FE292E00E94A6068C2FBF
:1025A000CF910C94F007AF92BF92CF92DF92EF924F
:1025B000FF920F931F93CF93DF93CDB7DEB72A9788
:1025C0000FB6F894DEBF0FBECDBF0E94280B0E944D
:1025D000A112811111C08FEF89838A831B820E940F
:1025E000491F8160782F9D838C8349815A816B813B
:1025F0008D810E946B1340C08EEDA82E81E0B82E15
:1026000000E010E0C02E802F0E94880AE82EF5011D
:10261000D1905F01D82631F40F5F1F4F06301105AE
:1026200089F7D9CF80914B0281FD0E948E0A80E00C
:10263000FF24F3949D2D9F21D1F08E83CF82EF2034
:1026400081E009F480E088870E94491F8160782F2B
:102650009A8789874E815F8168858A850E946B137E
:10266000F801E252FE4F8081F826F08205C08F5FAC
:10267000FF0C8630F9F6D0CF0E94D6210E94FC11C3
:102680009091DD018917B1F00E94FC118093DD016A
:102690002A960FB6F894DEBF0FBECDBFDF91CF9163
:1026A0001F910F91FF90EF90DF90CF90BF90AF9070
:1026B0000C94AB122A960FB6F894DEBF0FBECDBFB6
:1026C000DF91CF911F910F91FF90EF90DF90CF900E
:1026D000BF90AF900895CF93DF93CDB7DEB72B9720
:1026E0000FB6F894DEBF0FBECDBF4F835887698702
:1026F0007A878B87DE01119686E0FD0111928A951B
:10270000E9F785E0FE01379601900D928A95E1F791
:1027100049815A816B817C818D819E810E94A8199B
:102720002B960FB6F894DEBF0FBECDBFDF91CF91D1
:102730000895FC01808191810E947E1C0895CF93B1
:10274000882309F443C0C82F8CEF8C0F813A68F4BA
:102750008C2F0E946D26811139C06C2F8091000151
:10276000909101010E94B51E0CC080E28C0F883050
:1027700058F4C77081E001C0880FCA95EAF70E943B
:10278000C01CCF910C940B1DEBE5EC0FE33040F433
:10279000F0E0E257FE4F808190E0CF910C945F1201
:1027A000E8E5EC0FE73150F4F0E0EE0FFF1FE05AE0
:1027B000FE4F80819181CF910C947512C03F30F013
:1027C0008C2F0E945C20CF910C944921CF910895C9
:1027D000882389F19CEF980F913A40F4682F8091FB
:1027E0000001909101010E94B71E0DC090E2980F68
:1027F000983058F4877091E001C0990F8A95EAF7F4
:10280000892F0E94C61C0C940B1D9BE5980F9330DA
:1028100020F480E090E00C945F1298E5980F9731D7
:1028200020F480E090E00C947512803F20F00E942C
:10283000C4200C9449210895CF93C82F0E949F1360
:10284000C93349F42FEF87EE93E021508040904048
:10285000E1F700C000008C2FCF910C94E81388237F
:1028600021F00E94C01C0C940B1D0895882321F0B8
:102870000E94C61C0C940B1D0895CF92DF92EF921C
:10288000FF920F931F93CF93DF937C01062FC72FE7
:10289000FC01158112951F70D281D1110E94DD1C9F
:1028A0000E94B61C882379F0DD2369F080E2800F56
:1028B000883048F082E00E94551D0E94B61C91E0CD
:1028C000D82ED92601C0D12CCC2EC2948FE0C8229C
:1028D0008C2D90E0FC01EA5AFF4F0C94872F8C2F2F
:1028E000807FCF70882311F0C295C07FDD2399F0DF
:1028F000CC2309F4C4C180E2800F883010F00111AC
:1029000004C08C2F0E94C01C03C08C2F0E94D01CBE
:102910000E940B1DB4C1802F0E94E813CC2309F440
:10292000D3C180E2800F883010F0011104C08C2FD9
:102930000E94C61C03C08C2F0E94D61C0E940B1D37
:10294000C3C18C2F807FCF70803211F0C295C07FC1
:10295000002319F00130C9F022C0DD2371F01123EA
:1029600041F0113031F40E94F01C8C2B0E94F81CB5
:10297000ABC10E94F01C8C2B1DC0112319F011302B
:1029800009F4A2C10E94011D25C0DD2321F01330EE
:1029900008F09AC10EC0123008F096C11BC0DD23AA
:1029A00061F0112331F0F701858180FF68C18F70DC
:1029B00085838C2F0E942F1487C1112359F009336E
:1029C00009F06EC1FFEF27EE83E0F1502040804018
:1029D000E1F764C18C2F0E94361476C18C2F869546
:1029E0008695837019F0813061F06EC1DD2321F08E
:1029F000802F9C2F937002C080E090E00E945F12B5
:102A00006BC1DD2321F0802F9C2F937002C080E0EA
:102A100090E00E94751260C1DD23F9F0053F51F08E
:102A2000063F71F0043FA9F4809173029091740203
:102A300081600BC08091730290917402826005C026
:102A400080917302909174028460909374028093D9
:102A50007302802F0E945C201EC0053F51F0063F8C
:102A600071F0043FA9F480917302909174028E7FFB
:102A70000BC080917302909174028D7F05C080918C
:102A80007302909174028B7F90937402809373020F
:102A9000802F0E94C4200E9449211EC18C2F837068
:102AA00009F045C0D11114C1402F42954695477099
:102AB000440F440F602F6F70862F90E0A0E0B0E0CD
:102AC000042E04C0880F991FAA1FBB1F0A94D2F7B7
:102AD00004FF10C00FE010E020E030E004C0000F61
:102AE000111F221F331F4A95D2F70095109520958C
:102AF000309503C000E010E09801C695C695C370FC
:102B0000BC01CD01602B712B822B932BC23049F07D
:102B100058F4C13019F00E94F91ADAC00E94E71A7D
:102B2000D7C00E940B1BD4C00E94E51AD1C0DD2380
:102B300019F08C2F817001C08695882309F4C8C0D4
:102B4000402F429546954770440F440F602F6F7099
:102B5000862F90E0A0E0B0E0042E04C0880F991FFB
:102B6000AA1FBB1F0A94D2F704FF10C00FE010E0A9
:102B700020E030E004C0000F111F221F331F4A95D0
:102B8000D2F7009510952095309503C000E010E035
:102B90009801C695C695C370BC01CD01602B712B01
:102BA000822B932BC23049F058F4C13019F00E94A7
:102BB000BE1B8EC00E94AC1B8BC00E94D01B88C065
:102BC0000E941F1B85C0CF70DD2339F08C2F0E941F
:102BD000451B802F0E942F147BC0802F0E9436142B
:102BE0008C2F0E94661B74C0023F01F128F4003F45
:102BF00041F0013FA1F03FC0033FF9F0043F39F13C
:102C00003AC0DD2341F0123008F05EC08C2F8F7186
:102C10000E948B1B59C0133008F056C0F7CFDD233C
:102C200039F08C2F8F710E94451B4EC0DD23C9F3F4
:102C30008C2F8F710E94661B47C0DD2329F08C2FDB
:102C40008F710E94301B40C00E942B1B3DC0DD23B2
:102C500049F0CF718C2F0E94451B63E08C2F0E949E
:102C6000401D32C081E00E94551D123068F182E0A3
:102C70000E94551D29C0DD2331F0112391F2802FD0
:102C80000E949F1321C0112399F2093349F49FEF49
:102C9000E7EEF3E09150E040F040E1F700C00000C3
:102CA000802F0E94E81310C04C2F4F70602FC70177
:102CB0000E947A080E94561A0FC04C2F4F70602F46
:102CC000C7010E947D0808C088EF8C0D843020F475
:102CD0000E94FC110E94F007DD20C9F00E94B21C86
:102CE00080FD15C0F70112820E94AC1C0E94451B9A
:102CF000C7010E9490160E94AC1CDF91CF911F91DA
:102D00000F91FF90EF90DF90CF900C94661BDF91B6
:102D1000CF911F910F91FF90EF90DF90CF9008958A
:102D20000F931F93CF93DF93EC01988189812B81BF
:102D30003C81232B31F08F3F31F481E09F3F19F428
:102D400003C081E001C080E080FD13C0CE010E947D
:102D50000E08882371F0688179818A810E94891C1C
:102D60008C010E94E21B0E94D31AB801CE010E947E
:102D70003D14DF91CF911F910F9108950E94DD1CAA
:102D80000E94ED1C0E940B1D0E9471220E9449218D
:102D900080E090E00E945F1280E090E00C94751259
:102DA00080910001909101010E94B91E0C94BE1601
:102DB0000E94CD1C0C94D016E92FE295EF704E2F97
:102DC00050E0FA013297EE30F105B0F4EA59FF4FC6
:102DD0000C94872F803F91F018F4883E68F40EC061
:102DE000843F51F40BC0883E48F0813F29F406C06F
:102DF00093FB882780F9089580E0089581E0089585
:102E00000E947E1C0E94DC160895CF93DF9300D0B1
:102E100000D01F92CDB7DEB70F900F900F900F909C
:102E20000F90DF91CF910895CF93DF9300D000D022
:102E300000D0CDB7DEB726960FB6F894DEBF0FBE32
:102E4000CDBFDF91CF9108951F93CF93DF93C091B2
:102E5000E50116E08091E601C81799F0D0E01C9FCB
:102E6000F0011D9FF00D1124E951FE4F4081518169
:102E700062817381848195810E9414172196C770A5
:102E8000E9CFDF91CF911F910895409117025091A2
:102E900018026091190270911A0280911B029091A0
:102EA0001C020C941417CF9380911C0282958F7092
:102EB00009F05FC080911902882309F45AC08091FB
:102EC000E501B091E60170911702A09118024091BE
:102ED0001A0250911B0291E07F3F09F090E0692FA8
:102EE000C6E08B1709F445C04115510521F0AF3FED
:102EF00021F020E003C021E001C0262F90E020FD5A
:102F000035C0C89FF001C99FF00D1124E951FE4F53
:102F100021812A132BC02081271328C0228121114F
:102F200025C0238134812417350710F4215031093D
:102F3000241B350B283C3105C8F420911C022F704E
:102F4000206120931C0226E0289FF001299FF00DAC
:102F50001124E451FE4F80818F708061808387E16E
:102F600092E00E949016CF910C94241701968770DE
:102F7000B8CFCF910895AF92BF92CF92DF92EF92E8
:102F8000FF920F931F93CF93DF93CDB7DEB7619777
:102F90000FB6F894DEBF0FBECDBF8C0185E0F801FF
:102FA000DE011D9601900D928A95E1F7D8014C91B2
:102FB00011965C9111971296EC90309117026091E6
:102FC000180280911A0290911B02009731F06F3F16
:102FD00031F421E03F3F19F403C021E001C020E0BB
:102FE000B22FB170BB2E20FD60C1F801C380D48028
:102FF000A0901902AA2009F4EEC020911C02C81664
:10300000D90628F0D601A81BB90BCD0104C08095C4
:1030100090958C0D9D1DFF24F394883C910580F0C4
:10302000F12C207F09F09CC07C2DD98AC88A6E2D96
:1030300089890E94051787E192E00E9490162DC1B0
:10304000822F807F09F054C0561314C0431312C05E
:10305000FE2CE1100FC02F70206120931C020E94F3
:10306000451787E192E00E94901680911C02F801BA
:1030700085835CC1CD2831F05F3F31F481E04F3F63
:1030800019F403C081E001C080E080FD03C081E04D
:103090008E2502C080E090E0F82FF170FF2E80FFB7
:1030A0001CC08091E5012091E60136E0821709F409
:1030B0001AC190E0389FF001399FF00D1124E951B9
:1030C000FE4F6181561306C06081461303C06281C2
:1030D000E61203C001968770E9CFFE2CEE2009F4BA
:1030E00025C180911C02816080931C02F12C1EC1BD
:1030F000561309C0431307C0E11005C080911C029C
:10310000F8018583A4C04D875E878D859E850E94CA
:103110000017882379F1EE2069F120911C02822F9B
:1031200082958F7090E0029774F0809117029091D1
:10313000180298878F831986DB86CA862C87CE0172
:1031400007960E94901686E0F801A7E1B2E0019090
:103150000D928A95E1F70E9453170E9445170DC002
:10316000561771F04D875E878D859E850E940017EA
:1031700081111AC0C8010E949016FF24F394D6C092
:103180004313F0CFE110EECF80911C02F80185834C
:10319000C8010E94901686E0E7E1F2E0DF011D928F
:1031A0008A95E9F7FA2CC2C0EE2021F320911C0287
:1031B000822F82958F7090E002972CF280911702F7
:1031C000909118029A8389831B82DD82CC822E83A0
:1031D000CE010196B6CFC816D90628F0F601E81B35
:1031E000F90BCF0104C0809590958C0D9D1D883CF6
:1031F000910548F0F12C7C2DD98AC88A6E2D8989D9
:103200000E9405174AC0FE2CEE2009F4B3CF5613D6
:1032100033C0431331C020911C0220FD24C0822FF3
:1032200082958F70482F50E041155105E1F0D8018B
:1032300015962C9315974F30510549F08F5F982FB5
:103240009295907F822F8F70892B15968C93C80151
:103250000E94901686E0F801A7E1B2E001900D927D
:103260008A95E1F73DC086E0F801A7E1B2E0019060
:103270000D928A95E1F75AC04D875E878D859E85B0
:103280000E94001781115FCF80911C0281608093A2
:103290001C02C8010E94901649C0E7E1F2E086E0F6
:1032A000DF011D928A95E9F71BC0EE2009F462CF79
:1032B0004D875E878D859E850E940017F82E882396
:1032C00009F458CF86E0F801A7E1B2E001900D9231
:1032D0008A95E1F787E192E00E9499130E945317C3
:1032E0000E94451723C04D875E878D859E850E946D
:1032F0007E1C292F22952F70223028F49F7039F0E0
:10330000811105C00BC0243028F49F7049F4805E01
:10331000883020F0C8010E949016BF2CFB2C06C0FC
:10332000D80115969C91907F91F7F8CF8F2D6196DB
:103330000FB6F894DEBF0FBECDBFDF91CF911F91C6
:103340000F91FF90EF90DF90CF90BF90AF900895D6
:103350001F93CF93DF93CDB7DEB72C970FB6F894BA
:10336000DEBF0FBECDBF4F83588769877A878B87B3
:103370009C87CE0107960E94BB178823D1F09F81BE
:1033800088852A853B85232B31F08F3F31F481E0FE
:103390009F3F19F403C081E001C080E080FD47C079
:1033A0004F81588569857A858B859C850E94141785
:1033B0003EC086E0FE013796DE01119601900D9227
:1033C0008A95E1F7FF81E8856A857B85611571053E
:1033D00031F0EF3F31F481E0FF3F19F403C081E0A9
:1033E00001C080E080FD23C02091E60130E0C901EA
:1033F0000196877099274091E50150E08417950761
:10340000F1F1F983EA837D836C8396E0929FD0018A
:10341000939FB00D1124A951BE4FFE01319601902A
:103420000D929A95E1F78093E6010E94241716E029
:103430008091E5019091E601891771F1189FC00113
:10344000112489519E4F0E94BB17882329F1E091D6
:10345000E5011E9FF0011124E951FE4F4081518189
:1034600062817381848195810E9414178091E501A6
:1034700090E00196877099278093E501D9CF0E944B
:10348000D8161092E6011092E501E7E1F2E086E03D
:10349000DF011D928A95E9F72C960FB6F894DEBFEE
:1034A0000FBECDBFDF91CF911F910895EF92FF9294
:1034B0000F931F93CF93DF938C01892B09F46CC07A
:1034C000F12CEE24E394E8012196F80184918437ED
:1034D00040F4843008F051C0813081F0823019F11D
:1034E0005BC0853709F444C0A8F19CE7980F90377A
:1034F00008F052C08F770E94E81341C00E5F1F4F43
:10350000FE01849190E2980F983050F48770FE2D60
:1035100001C0FF0F8A95EAF78F2F0E94E01C14C0AC
:103520000E949F132DC00E5F1F4FFE01849190E2F9
:10353000980F983060F48770FE2D01C0FF0F8A95B8
:10354000EAF78F2F0E94E61C0E940B1D19C00E94F3
:10355000E81316C00E5F1F4FFE01C491CC2381F00B
:103560008FE99FE00197F1F700C00000C150F6CF4E
:103570000E5F1F4FFE01F49003C00E949F138E0147
:103580008F2D882309F49FCFEFE9FFE03197F1F702
:1035900000C000008150F5CFDF91CF911F910F91B6
:1035A000FF90EF900895089508950C94D41A0C9408
:1035B000D51A0E94D71A60933A0270933B02809307
:1035C0003C0290933D020C94BE160C94D91A0F93B2
:1035D0001F9300913A0210913B0220913C023091DE
:1035E0003D02602B712B822B932B1F910F910C941A
:1035F000D91A0F931F9300913A0210913B02209128
:103600003C0230913D0260237123822393231F915A
:103610000F910C94D91A0F931F9300913A021091B5
:103620003B0220913C0230913D02602771278227A6
:1036300093271F910F910C94D91A0C944A070E945A
:103640001D1B60933602709337028093380290936B
:1036500039020C94BE1660E070E0CB010C941F1B85
:103660000F931F9341E050E060E070E08A019B01FE
:1036700004C0000F111F221F331F8A95D2F7C90102
:10368000B8011F910F910C941F1B0F931F9341E0E2
:1036900050E060E070E004C0440F551F661F771FC4
:1036A0008A95D2F78091360290913702A091380224
:1036B000B09139028A019B01082B192B2A2B3B2B35
:1036C000C901B8011F910F910C941F1B0F931F93F9
:1036D00041E050E060E070E004C0440F551F661FF9
:1036E000771F8A95D2F74095509560957095809197
:1036F000360290913702A0913802B09139028A01C6
:103700009B01082319232A233B23C901B8011F91D8
:103710000F910C941F1B0F931F9341E050E060E04A
:1037200070E004C0440F551F661F771F8A95D2F7BB
:103730008091360290913702A0913802B0913902FF
:103740008A019B01082719272A273B27C901B801AD
:103750001F910F910C941F1B0F931F930091360222
:10376000109137022091380230913902602B712B71
:10377000822B932B1F910F910C941F1B0F931F9360
:1037800000913602109137022091380230913902AF
:1037900060237123822393231F910F910C941F1B8D
:1037A0000F931F9300913602109137022091380237
:1037B0003091390260277127822793271F910F913B
:1037C0000C941F1B0895292F220F920F990F890F18
:1037D000E82FE695E695E695877051E001C0550F14
:1037E0008A95EAF785E0E89FF0011124E35EFD4F3A
:1037F00020E030E070E04081CB01022E02C09695BF
:1038000087950A94E2F78170819584278523842720
:1038100081932F5F3F4F2530310569F70895292F98
:10382000220F920F990F890F682F669566956695FE
:10383000982F977085E0689FB001112440E050E018
:1038400080E0FB01E40FF51FE35EFD4F208130E0D7
:10385000092E02C0369527950A94E2F72170332786
:10386000042E01C0220F0A94EAF7822B4F5F5F4FAC
:103870004530510531F70895BF92CF92DF92EF9214
:10388000FF920F931F93CF93DF938C01C09036026A
:10389000D0903702E0903802F090390280913A02DD
:1038A00090913B02A0913C02B0913D02C82AD92AD6
:1038B000EA2AFB2ACFE1D0E0D701C6010C2E04C0D2
:1038C000B695A795979587950A94D2F780FD04C081
:1038D000219790F7B12C07C0BC2EB8018C2F0E9405
:1038E00099080197A9F38B2DDF91CF911F910F912B
:1038F000FF90EF90DF90CF90BF900895CF93DF932C
:10390000EC010E943C1CBE010E949908DF91CF91FE
:1039100008951F93CF93DF93EB019091E4019923D6
:1039200021F0CB010E947E1C13C0882349F0CB01FB
:103930000E943C1C182F682FCE010E94E31B04C07C
:10394000CB010E940F1C182FBE01812F0E949908E5
:10395000DF91CF911F91089580913E0285958595C5
:103960008595089580913E028770089590913E025A
:10397000977081E009F480E0089580914A020895EB
:1039800090914A02892B80934A02089580959091E4
:103990004A02892380934A02089510924A020895A8
:1039A00090914902892B80934902089580959091C6
:1039B000490289238093490208951092490208958B
:1039C00090914802892B80934802089580959091A8
:1039D000480289238093480208951092480208956E
:1039E00080913F02089508950C94F31C0C94F41CEC
:1039F00090913F02981721F080933F020C94F61C9F
:103A0000089580913F02882329F010923F0280E0C0
:103A10000C94F61C0895E0910001F0910101809151
:103A20004A028083E0910001F09101019081809130
:103A30004902892B8083E0910001F091010190817E
:103A400080914802892B808380913F02882381F0F6
:103A5000E0910001F09101019081892B8083809198
:103A60000001909101010E94821E81110E94011D9E
:103A700080910001909101010C9408120C94F31CA8
:103A800098E0899F90011124262B20933E020E94EA
:103A9000451B80913E028595859585950C943E1D2C
:103AA00010923E0280E00C943E1D20913E028095D3
:103AB000822380933E02982F977079F430E0482F4C
:103AC000082E000C550B2417350739F08595859580
:103AD00085950E94661B0C94501D08959093AB0130
:103AE0008093AA010895CF92DF92EF92FF926C012A
:103AF000EE24FF24C114D104E104F10421F0C70134
:103B0000B60120E101C020E0C72ED82EE92EFF2407
:103B1000C114D104E104F10419F0285FC701B60112
:103B20006B017C0154E0F694E794D794C7945A95BE
:103B3000D1F7C114D104E104F10419F02C5FC701DD
:103B4000B6016B017C0142E0F694E794D794C794E8
:103B50004A95D1F7C114D104E104F10419F02E5FA4
:103B6000C701B601DC01CB01B695A795979587955E
:103B7000892B8A2B8B2B09F02F5F822FFF90EF90E0
:103B8000DF90CF9008958295982F937344E0949F8F
:103B9000900111248C7C86958695282B822F857523
:103BA000880F2A7A2695822B08956FEF7FEF80E0A9
:103BB00090E00C94EF2F80E090E00E94CB2F21E06A
:103BC0008C3E9E4F09F020E0822F089582E090E025
:103BD0000C94C32F83E090E00C94C32FCF9384E028
:103BE00090E00E94C32FC82F81E290E00E94C32F73
:103BF0002C2F30E0A901582BCA01CF910895CF9303
:103C0000C92F682F84E090E00E94D12F6C2F81E2B1
:103C100090E0CF910C94D12FAB01BC018FE090E0EC
:103C20000C94E32FAB01BC0183E190E00C94E32FF3
:103C300060E070E0CB010C94121E60E070E0CB01FC
:103C40000E940C1E0C94181E6CEE7EEF80E090E03B
:103C50000E94EF2F60E082E090E00E94D12F60E0B0
:103C600083E090E00E94D12F10923A0210923B0222
:103C700010923C0210923D0260E084E090E00E94CD
:103C8000D12F60E081E290E00E94D12F60E085E0DA
:103C900090E00E94D12F60E086E090E00E94D12F5A
:103CA0006FEF87E090E00E94D12F40E050E0BA0132
:103CB00088E090E00E94E32F60E08DE090E00E94B9
:103CC000D12F40E050E0BA0188E190E00E94E32F5C
:103CD00060E087E190E00E94D12F40E050E0BA011F
:103CE0008CE190E00E94E32F60E080E290E00E948F
:103CF000D12F0C941D1E0C94241E682F8EE090E092
:103D00000C94D12FFC01329697E080E0915029F07D
:103D100021912223D9F38F5FF9CF08959C01FC01F3
:103D200032969FEF80E04191461789F09F3F19F44A
:103D3000411101C0982F8F5F8630A9F79F3F39F05E
:103D4000F901E90FF11D97FDFA9562830895089531
:103D50009C012A5F3F4FFC014281461301C0128241
:103D6000019682179307B9F708950C948E1E0C9450
:103D7000A81E029626E0FC0111922A95E9F7089503
:103D800008950C94C01E0C94C01ECF930E94C31EB5
:103D90000E94280B0E94C11EC0E08C2F0E94880A3E
:103DA000811104C0CF5FC630C1F701C081E0CF915F
:103DB00008950C94C01E0C94D91E0E94DB1E8091A5
:103DC0007F02843049F110924C0220E488E190E0B7
:103DD0000FB6F894A895809360000FBE2093600002
:103DE00080E00E94F0070E94DB1E83B7817F846021
:103DF00083BF83B7816083BF7894889583B78E7FB4
:103E000083BF0FB6F894A895809160008861809375
:103E10006000109260000FBE08950C94C01E0E94B6
:103E2000D8160E94FC110E94F0070C940D1F1F92DF
:103E30000F920FB60F9211248F939F93AF93BF935E
:103E400080914C02811113C080917502909176028D
:103E5000A0917702B09178024196A11DB11D809387
:103E6000750290937602A0937702B0937802BF9187
:103E7000AF919F918F910F900FBE0F901F9018954B
:103E800082E084BD93E095BD9AEF97BD80936E006C
:103E900008952FB7F8948091750290917602A091C1
:103EA0007702B09178022FBF08952FB7F8946091F0
:103EB00075027091760280917702909178022FBFFF
:103EC0000895CF92DF92EF92FF920F931F932FB737
:103ED000F89440917502509176026091770270914A
:103EE00078022FBF6A017B01EE24FF248C0120E0C1
:103EF00030E0C016D106E206F30610F44150510935
:103F00009A01281B390BC9011F910F91FF90EF9067
:103F1000DF90CF90089578941F920F920FB60F9272
:103F200011248F939F93AF93BF93809175029091CB
:103F30007602A0917702B09178020196A11DB11D81
:103F40008093750290937602A0937702B0937802E3
:103F5000BF91AF919F918F910F900FBE0F901F90C7
:103F6000189587E797E790930108809300089AE0F7
:103F700088E10FB6F894A895809360000FBE9093E7
:103F80006000FFCF0E94DB1D811102C00E947B1EDA
:103F90000E94E61D80934B020E94EE1D90937A02D0
:103FA000809379020E94EA1D682F70E080E090E023
:103FB0000C94E51A8091500280FF0BC060910501BE
:103FC00085E0689FB0011124759567957595679593
:103FD0002BC081FF09C06091050185E0689FB00199
:103FE00011247595679520C082FF07C06091050177
:103FF00085E0689FB001112417C090914F0299236A
:10400000D1F060910401961788F72091050185E0B1
:10401000289F90011124929FA001939F500D11247D
:1040200070E0CA010E94732F6038710540F4611579
:10403000710519F406C065E070E0862F08958FE7DA
:10404000089581E008958091500280FF08C060913A
:10405000030170E0759567957595679521C081FF9F
:1040600006C06091030170E07595679519C082FFE5
:1040700004C06091030170E010C090914F02992339
:1040800099F0609102019617A0F780910301899F32
:10409000C001112470E00E94732F6038710540F454
:1040A0006115710519F406C061E070E0862F08956E
:1040B0008FE7089581E00895803F21F40E94DA1F80
:1040C000819504C0813F29F40E94DA1F8093540235
:1040D0000895823F21F40E94DA1F819504C0833F36
:1040E00029F40E94DA1F809353020895893F19F43E
:1040F0000E94232005C08A3F31F40E94232081952D
:104100008093550208958B3F21F40E9423208195CE
:1041100004C08C3F29F40E94232080935602089506
:10412000843F21F480915202816017C0853F21F4C1
:1041300080915202826011C0863F21F48091520228
:1041400084600BC0873F21F480915202886005C0D3
:10415000883F31F480915202806180935202089529
:104160008D3F21F48091500281600BC08E3F21F47D
:1041700080915002826005C08F3F29F480915002E7
:104180008460809350020895803F39F480915402F6
:1041900087FF6CC01092540269C0813F29F480915E
:1041A00054021816BCF362C090915302823F29F466
:1041B00097FF5CC01092530259C0833F19F419163F
:1041C000CCF354C0893F41F48091550218160CF08D
:1041D0004DC0109255024AC08A3F29F48091550281
:1041E00087FF44C0F6CF8B3F39F48091560287FF9A
:1041F0003DC0109256023AC08C3F29F4809156027D
:104200001816BCF333C0843F21F4809152028E7F94
:1042100017C0853F21F4809152028D7F11C0863FE7
:1042200021F4809152028B7F0BC0873F21F4809153
:104230005202877F05C0883F31F4809152028F7E01
:104240008093520213C08D3F21F4809150028E7FE3
:104250000BC08E3F21F4809150028D7F05C08F3FAF
:1042600029F4809150028B7F8093500280915302F9
:1042700081110EC08091540281110AC080915502B3
:10428000811106C080915602811102C010924F0226
:10429000089580914B0283FF7EC080E792E00E94E8
:1042A000A606809152021F928F938BE692E09F9315
:1042B0008F930E943F0789E692E00E94A6068091B4
:1042C0005302282F082E000C330B3F938F9386E662
:1042D00092E09F938F930E943F0784E692E00E94B2
:1042E000A60680915402282F082E000C330B3F9312
:1042F0008F9381E692E09F938F930E943F078FE513
:1043000092E00E94A60680915502282F082E000CEC
:10431000330B3F938F938CE592E09F938F930E9492
:104320003F078AE592E00E94A60680915602282F58
:10433000082E000C330B3F938F9387E592E09F93F9
:104340008F930E943F0784E592E00E94A606809129
:104350004F021F928F9381E592E09F938F930E946B
:104360003F078FE492E00E94A606809150021F92C0
:104370008F938CE492E09F938F930E943F0789E490
:1043800092E00E94A6068DB79EB74C960FB6F894A1
:104390009EBF0FBE8DBF81E592E00E9451120E9428
:1043A000491F90934E0280934D0208951F93CF931F
:1043B000DF9380914D0290914E020E94611FAC01EB
:1043C00090914F02992321F02091060130E006C020
:1043D000209107018AE0289F90011124421753077A
:1043E00008F47BC080915302C0915402D0915502D1
:1043F00010915602811107C0C1116BC0D11169C063
:10440000111167C06AC09F3F19F09F5F90934F02E0
:10441000181624F40E94DA1F8093530280915302ED
:1044200087FF05C00E94DA1F8195809353021C16F6
:1044300024F40E94DA1F809354028091540287FF73
:1044400005C00E94DA1F8195809354023091530277
:104450003323E1F0209154022223C1F045EB3403D1
:10446000C0011124992319F09093530203C081E0F5
:104470008093530235EB2303C0011124992319F0D3
:104480009093540203C081E0809354021D1624F4DB
:104490000E942320809355028091550287FF05C01A
:1044A0000E942320819580935502111624F40E94C6
:1044B0002320809356028091560287FF05C00E94F8
:1044C0002320819580935602DF91CF911F910C9408
:1044D00049219F3F09F099CFAACFDF91CF911F913A
:1044E0000895E1E5F2E086E0DF011D928A95E9F7A3
:1044F00010924F0210925002089583E994E00E94B6
:10450000A6061F9281E08F931F9285E08F9385E42A
:1045100094E09F938F930E943F070F900F900F900E
:104520000F900F900F9008958330E9F128F48130B7
:1045300061F0823009F10895853009F462C008F411
:1045400049C0863009F474C0089580910701262F70
:1045500030E0280F311D2F3F310524F4680F6093A0
:10456000070103C08FEF80930701809107011F921D
:104570008F938EE793E072C080910601262F30E082
:10458000280F311D2F3F310524F4680F6093060179
:1045900003C08FEF80930601809106011F928F93D5
:1045A0008CE693E05BC080910501262F30E0280F58
:1045B000311D2F3F310524F4680F6093050103C0BE
:1045C0008FEF80930501809105011F928F9389E5FC
:1045D00093E044C080910401262F30E0280F311D64
:1045E0002F3F310524F4680F6093040103C08FEF5F
:1045F00080930401809104011F928F9384E493E0DF
:104600002DC080910301262F30E0280F311D2F3F50
:10461000310524F4680F6093030103C08FEF80938A
:104620000301809103011F928F938BE293E016C0E8
:1046300080910201262F30E0280F311D2F3F3105D8
:1046400024F4680F6093020103C08FEF809302018E
:10465000809102011F928F9380E193E09F938F934B
:104660000E943F070F900F900F900F900895833096
:1046700081F128F4813059F08230D1F008958530ED
:1046800009F449C0B8F1863009F456C00895809104
:104690000701681720F4861B8093070102C010925F
:1046A0000701809107011F928F9381E093E054C02E
:1046B00080910601681720F4861B8093060102C0D2
:1046C00010920601809106011F928F938FEE92E067
:1046D00043C080910501681720F4861B8093050173
:1046E00002C010920501809105011F928F938CEDFD
:1046F00092E032C080910401681720F4861B8093F9
:10470000040102C010920401809104011F928F9352
:1047100087EC92E021C080910301681720F4861B8A
:104720008093030102C010920301809103011F9244
:104730008F938EEA92E010C080910201681720F4F6
:10474000861B8093020102C0109202018091020137
:104750001F928F9383E992E09F938F930E943F076C
:104760000F900F900F900F900895CF93C82F1F9226
:104770008F9388E995E09F938F930E943F0781E094
:1047800090E0A0E0B0E0BC01CD0104C0660F771F4F
:10479000881F991FCA95D2F70E94E51A0F900F90B3
:1047A0000F900F90CF910C94D816CF93DF938B314D
:1047B00009F4F9C108F08FC18B3009F4B2C108F0D7
:1047C00065C1863009F4B0C120F4853009F4BEC15A
:1047D0006CC2873009F4CCC1883009F066C287EE1C
:1047E0009AE00E94A60688E39AE00E94A6060E942C
:1047F000EA1D1F928F9385E39AE09F938F930E9407
:104800003F0783E39AE00E94A6060E94E61DC82F98
:1048100080E29AE00E94A6061F92CF938BE19AE075
:104820009F938F930E943F0789E19AE00E94A6061A
:104830008FE09AE00E94A6068C2F81701F928F93C2
:104840008CE09AE09F938F930E943F078AE09AE062
:104850000E94A60680E09AE00E94A606C1FB882777
:1048600080F91F928F938DEF99E09F938F930E9411
:104870003F078BEF99E00E94A6068FEE99E00E9419
:10488000A606C2FB882780F91F928F938CEE99E0D1
:104890009F938F930E943F078AEE99E00E94A6069D
:1048A00081EE99E00E94A606C3FBCC27C0F91F92B7
:1048B000CF938EED99E09F938F930E943F078CEDED
:1048C00099E00E94A6060E94EE1DEC0188EC99E09A
:1048D0000E94A606DF93CF9383EC99E09F938F937A
:1048E0000E943F0781EC99E00E94A60688EA99E0C1
:1048F0000E94A6068C2F81701F928F9385EA99E003
:104900009F938F930E943F078DB79EB780960FB6F7
:10491000F8949EBF0FBE8DBF83EA99E00E94A60661
:104920008CE899E00E94A606C1FB882780F91F92B7
:104930008F9389E899E09F938F930E943F0787E8C0
:1049400099E00E94A60685E799E00E94A6068D2FB1
:1049500081701F928F9382E799E09F938F930E94BB
:104960003F0780E799E00E94A6068EE599E00E9445
:10497000A606D695D1701F92DF938BE599E09F93A1
:104980008F930E943F0789E599E00E94A60687E47D
:1049900099E00E94A606C2FB882780F91F928F9398
:1049A00084E499E09F938F930E943F0782E499E00B
:1049B0000E94A60680E399E00E94A606C3FB882712
:1049C00080F91F928F938DE299E09F938F930E94BD
:1049D0003F078BE299E00E94A60681E299E00E94DF
:1049E000A606C4FB882780F91F928F938EE199E079
:1049F0009F938F930E943F078CE199E00E94A60647
:104A00008AE099E00E94A606C5FB882780F91F92DC
:104A10008F9387E099E09F938F930E943F0785E0F3
:104A200099E00E94A60689EE98E00E94A606C6FBC1
:104A3000882780F91F928F9386EE98E09F938F933B
:104A40000E943F078DB79EB780960FB6F8949EBF21
:104A50000FBE8DBF84EE98E00E94A6068CED98E014
:104A60000E94A606C7FBCC27C0F91F92CF9389ED01
:104A700098E09F938F930E943F0787ED98E00E94F4
:104A8000A6060F900F900F900F9049C0803109F447
:104A9000B4C020F48E3009F49AC007C1863109F4FD
:104AA000C7C0893109F001C18EEF96E00E94A606C9
:104AB00089EC96E00E94A60680E996E00E94A60690
:104AC00087E696E00E94A60681E396E00E94A6068D
:104AD00086E096E08FC08A32E1F060F4873209F414
:104AE000E0C028F48E3108F4E0C08D51DBC089327B
:104AF00069F1DBC0833448F48A3308F0D0C08533D1
:104B000009F4CFC0883369F0D0C0833409F4C9C038
:104B1000CCC086ED9AE00E94A6060E947B1EC1E0F2
:104B2000C9C084E397E066C080914B02817F8E7F8D
:104B300080934B028DE097E00E94A60682ED9AE0FA
:104B40000E94A60681E080935802E9CF0E94D81601
:104B500086EB9AE00E94A6069FEF23ED80E391503A
:104B600020408040E1F700C000000E94B11FD7CF75
:104B700080914B02C82FC095C170C0FB80F9809313
:104B80004B02CC2329F08AEA9AE00E94A60692C042
:104B90008DE99AE00E94A60680914B02897F877F6B
:104BA00080934B02BCCF90914B0291FBCC27C0F974
:104BB00081E0C827892FC0FB81F980934B02CC2369
:104BC00019F080E99AE029C082E89AE013C0909138
:104BD0004B0292FBCC27C0F981E0C827892FC0FB8C
:104BE00082F980934B02CC2319F083E79AE015C039
:104BF00083E69AE00E94A60692CF90914B0293FB27
:104C0000CC27C0F981E0C827892FC0FB83F98093A6
:104C10004B02CC2351F087E59AE00E94A6068091D2
:104C20004B02816080934B0245C08AE49AE0E2CF58
:104C300088EF95E00E94A6060E94FC111F928F93B8
:104C40008EED95E09F938F930E943F078091120114
:104C50001F928F9387EC95E09F938F930E943F075D
:104C6000809165021F928F9384EB95E09F938F93C1
:104C70000E943F070E94551F9F938F937F936F93CE
:104C80008DE995E09F938F930E943F078DB79EB764
:104C900042960FB6F8949EBF0FBE8DBF40CF89538A
:104CA00001C080E00E94B5233ACF88E49AE00E94D8
:104CB000A606C0E08C2FDF91CF91089580E0089583
:104CC0000C945E268E518A3030F4E82FF0E0EF56D7
:104CD000FE4F8081089580E00895CF93C82F809182
:104CE0005802813059F020F0823009F445C039C1B2
:104CF0000E94BD1C823209F036C104C00E94BD1C56
:104D0000823261F48C2F0E946026811104C08C2FA6
:104D10000E94D5232FC081E090E02CC08C2F0E94F0
:104D20005E26811126C0C431E1F070F4CB3081F0F1
:104D3000C031D1F40E947D2280E995E00E94A60650
:104D400082E08093580215C0C93259F0C83361F42B
:104D50008DE097E00E94A60684E995E00E94A606F1
:104D600008C01092580201C18EE895E00E94A60684
:104D7000FCC081E08170FBC0C43228F5CE3108F060
:104D8000C1C0CB30A1F1D0F4C73009F0D0C08EE162
:104D90008093070182E3809306018AE080930501F6
:104DA00084E18093040188E08093030188E280938A
:104DB000020184E394E00E94A606BCC0C33149F11D
:104DC000C431C1F0B4C0CB3409F4A6C028F4C93250
:104DD00089F0C83361F0ABC0C13509F49BC0C2355E
:104DE00009F496C0CE3409F0A2C06AE09BC00E94CC
:104DF0007D22A0C080915702882319F0109257029B
:104E000099C081E494E00E94A60681E08093580254
:104E1000AEC08BE194E00E94A60689E094E00E9477
:104E2000A606809107011F928F9386E094E09F93DE
:104E30008F930E943F0784E094E00E94A60682EFD1
:104E400093E00E94A606809106011F928F938FEE39
:104E500093E09F938F930E943F078DEE93E00E9413
:104E6000A6068EED93E00E94A606809105011F9292
:104E70008F938BED93E09F938F930E943F0789ED73
:104E800093E00E94A60688EC93E00E94A60680911B
:104E900004011F928F9385EC93E09F938F930E9460
:104EA0003F0783EC93E00E94A6068EEA93E00E94FF
:104EB000A606809103011F928F938BEA93E09F9344
:104EC0008F930E943F0789EA93E00E94A60682E939
:104ED00093E00E94A606809102011F928F938FE8B3
:104EE00093E09F938F930E943F078DE893E00E9489
:104EF000A6068DB79EB748960FB6F8949EBF0FBE14
:104F00008DBF18C08C2F0E9462268093570212C05A
:104F100061E003C061E006C06AE0809157020E9430
:104F2000942208C0809157020E94372303C082E375
:104F300094E013C080915702882369F01F928F93E9
:104F40008CE294E09F938F930E943F070F900F9005
:104F50000F900F9004C089E294E00E94A60681E0C1
:104F600006C01092580280E002C080E003CFCF91CB
:104F700008958091640208959FB7F89410925B029F
:104F80009FBF90917F02943009F057C09091E90043
:104F90009F703091EC00232F217030FD20E8922B80
:104FA00023E02093E9002091EB0020FF43C02091F3
:104FB000EE0027FF3FC020915902222321F02091CB
:104FC000E80025FF37C01092590226E03091E80032
:104FD00035FD15C030917F02343061F53091EB0022
:104FE00035FD28C0215021F481E08093590222C070
:104FF000EFE9FFE03197F1F700C00000E7CF8093C1
:10500000F1008091E80085FD0AC08091E80080FFF2
:10501000FCCF8091E8008E778093E80006C08FB7C0
:10502000F89421E020935B028FBF9F709093E9007A
:1050300080E008959F709093E9008FEF0895CF93DB
:10504000DF9300D01F92CDB7DEB790917F029430EE
:1050500019F589837B836A8382E08093E9008FEF6F
:105060009091E800815095FD06C095ED9A95F1F775
:1050700000008111F5CF8091E80085FF0DC040E070
:1050800050E063E070E0CE0101960E94CA2A809150
:10509000E8008E778093E8000F900F900F90DF91DB
:1050A000CF910895CF93DF93EC010E94AD2A823017
:1050B00011F0843031F4BE0184E0DF91CF910C9483
:1050C0001F28DF91CF910895BC016058710983E0DA
:1050D0000C941F28CF93DF93EC010E94AD2A8230FD
:1050E00011F08430F9F482E08093E9008FEF909121
:1050F000E800815095FD06C095ED9A95F1F7000006
:105100008111F5CF8091E80085FF0CC040E050E0B0
:1051100066E070E0CE010E94CA2A8091E8008E7796
:105120008093E800DF91CF910895CF93DF93EC0156
:105130000E94AD2A823011F0843039F581E08093ED
:10514000E9008FEF9091E800815095FD06C095ED44
:105150009A95F1F700008111F5CF8091E80085FF65
:1051600014C040E050E068E070E0CE010E94CA2A1E
:105170008091E8008E778093E80088E0FE01ACE53E
:10518000B2E001900D928A95E1F7DF91CF910895F9
:1051900087E19BE00E94A60680917E02811109C0F2
:1051A0000E945B2C0E94B82C8091E2008460809366
:1051B000E200089583E19BE00E94A60610927E0221
:1051C00008958FE09BE00C94A6068BE09BE00C9486
:1051D000A60687E09BE00E94A6060C940F1F209174
:1051E0005A022F5F822F62E30E94672F992319F0E2
:1051F00020935A02089510925A0280915B028823EC
:1052000071F180917F02843041F58091E9008F70C7
:105210002091EC00922F917020FD90E8892B93E073
:105220009093E9009091EB0090FF14C09091EE00F4
:1052300097FF10C09091E80095FF03C01092F10015
:10524000F9CF9091E80090FF05C09091E8009E771B
:105250009093E8008F708093E90010925B020895AC
:1052600042E061EC81E00E94D42B42E261EC82E0FA
:105270000E94D42B42E261EC83E00C94D42B809109
:105280008102833009F460C030F4813071F08230E3
:1052900009F499C008958A3009F485C08B3009F467
:1052A0006BC0893009F0A7C020C080918002813A8C
:1052B00009F0A1C08091E800877F8093E800809189
:1052C000840290918502892B21F468E08CE592E0BC
:1052D00003C060E080E090E070E00E94152B8091B8
:1052E000E8008B778093E8000895809180028132F6
:1052F00009F081C08091840290918502029708F0A4
:105300007AC08091E800877F8093E8008091E80070
:1053100082FD05C080917F028111F8CF6CC0209181
:10532000F3008091F20090E0922B029729F4809193
:10533000F1008B7F813021F48091F1008093640231
:105340008091E8008B7753C080918002813A09F008
:1053500052C08091840290918502892B09F04BC044
:105360008091E800877F8093E8008091E80080FFCB
:10537000FCCF8091120136C0809180028132D9F534
:105380008091840290918502892BA9F58091E80093
:10539000877F8093E8000E94092C8091820280938D
:1053A00012010C94D81680918002813221F58091EF
:1053B000E800877F8093E8000E94092C8091830297
:1053C00080936502089580918002813AA1F48091D2
:1053D000E800877F8093E8008091E80080FFFCCFA1
:1053E000809165028093F1008091E8008E77809330
:1053F000E8000C94092C089584B7877F84BF0FB60A
:10540000F894A89580916000886180936000109264
:1054100060000FBE90E080E80FB6F89480936100C2
:10542000909361000FBE0E949B120E945B2C0E9411
:10543000B82C8091E20084608093E2008CEB97E2CC
:105440000E946E1D78940E944C2F0E94A31288E047
:1054500091E00E94F71186EF9AE00E94A6068091E3
:105460007F02853089F482EF9AE00E94A6060E94AE
:10547000DD1E80917D02882391F30E94C51E882342
:1054800071F30E94B42AEBCF0E94D312E8CF0C94A0
:10549000492A292F332723303105C9F060F4213000
:1054A000310581F02230310509F047C08BE590E0ED
:1054B0002DE43BE046C02132310511F122323105A5
:1054C00061F13BC082E190E028EA3BE03AC09927D5
:1054D0008130910561F040F08230910559F00397D9
:1054E00061F5EBE1FBE008C0E9E4FBE005C0E3E3C4
:1054F000FBE002C0E1E2FBE0849190E09F0121C06B
:1055000063307105D0F4660F771FFB01EC55FE4F39
:105510002081318189E090E014C06330710568F426
:10552000FB01EE0FFF1FE256FE4F20813181FB0190
:10553000E556FE4F808190E004C080E090E020E0DE
:1055400030E0FA0131832083089580917F02843016
:1055500011F081E0089582E0089580916602811142
:1055600002C00C94A52A089580E189BD82E189BD1D
:1055700009B400FEFDCF8091D8008F7D8093D800C4
:105580008091E00082608093E0008091E00081FDE6
:10559000FCCF0895CF92DF92EF92FF920F931F936B
:1055A000CF93DF93EC018B017A010E94282C8111AB
:1055B00033C0E114F10439F0F70180819181081BB7
:1055C000190BC80FD91FC12CD12C0115110519F1C8
:1055D0008091E80085FD16C08091E8008E77809369
:1055E000E800E114F10449F0F70180819181C80ECF
:1055F000D91ED182C08285E00FC00E94282C88234A
:1056000021F30AC089918093F10001501109FFEF45
:10561000CF1ADF0ADACF80E0DF91CF911F910F918F
:10562000FF90EF90DF90CF90089520918602309107
:1056300087022617370748F06115710539F4209164
:10564000E8002E772093E80001C0B901FC0120E0BA
:105650006115710579F180917F028823F1F1853020
:10566000F1F18091E80083FD3CC08091E80082FD6B
:105670002EC08091E80080FFEBCF2091F300809155
:10568000F20090E0922B6115710551F08830910580
:1056900038F421912093F100615071090196F3CF04
:1056A00021E0089709F020E08091E8008E77809350
:1056B000E800CECF2111CFCF0AC080917F0288238E
:1056C00061F0853061F08091E80083FD0AC080912F
:1056D000E80082FFF2CF80E0089582E0089583E041
:1056E000089581E00895209186023091870226175F
:1056F000370748F06115710539F42091E8002E77DD
:105700002093E80001C0B901FC0120E0611571059A
:1057100091F180917F02882309F440C0853009F41B
:105720003FC08091E80083FD3DC08091E80082FD8C
:105730002FC08091E80080FFE9CF2091F300809195
:10574000F20090E0922B6115710559F088309105B7
:1057500040F424912093F100319661507109019633
:10576000F2CF21E0089709F020E08091E8008E77E1
:105770008093E800CBCF2111CCCF0AC080917F026B
:10578000882361F0853061F08091E80083FD0AC0D4
:105790008091E80082FFF2CF80E0089582E00895D2
:1057A00083E0089581E00895982F973068F59093ED
:1057B000E900981739F07091EC002091ED005091BC
:1057C000F00003C0242F762F50E021FD02C09F5F20
:1057D000ECCF3091EB003E7F3093EB003091ED0049
:1057E0003D7F3093ED003091EB0031603093EB0062
:1057F0007093EC002093ED005093F0002091EE00A8
:1058000027FDE5CF80E008958F708093E90081E067
:1058100008958091800287FF11C08091E80082FD89
:1058200005C080917F028111F8CF11C08091E800FE
:105830008B770BC080917F02882349F08091E8002C
:1058400080FFF8CF8091E8008E778093E80008957C
:105850002091E4003091E50095E64091EC00842F22
:10586000817040FF23C08091E80080FD1DC08091C1
:105870007F02882399F0853099F08091EB0085FDB7
:1058800011C04091E4005091E5002417350729F339
:10589000915011F09A01E1CF84E0089582E00895DB
:1058A00083E0089581E0089580E008954091E80044
:1058B00042FFDDCF08950E94C92C0E94D12CE0EE5A
:1058C000F0E0808181608083E8EDF0E080818F7777
:1058D000808319BCA7EDB0E08C918E7F8C93808182
:1058E0008F7E808310927E0208950F931F93CF9333
:1058F000DF930E94C92C0E94D12CC8EDD0E0888192
:105900008F77888388818068888388818F7D88836A
:1059100019BC10927F0210927B0210927D021092AD
:105920007C0200EE10E0F80180818B7F808388810B
:105930008160888342E060E080E00E94D42BE1EE49
:10594000F0E080818E7F8083E2EEF0E080818160F4
:105950008083808188608083F80180818E7F80834E
:10596000888180618883DF91CF911F910F91089585
:10597000E8EDF0E080818F7E8083E7EDF0E08081CC
:105980008160808384E082BF81E080937E020C94FA
:10599000752CE8EDF0E080818E7F80831092E2002C
:1059A00008951092DA001092E10008951F920F926C
:1059B0000FB60F9211242F933F934F935F936F93E2
:1059C0007F938F939F93AF93BF93EF93FF938091B8
:1059D000E10082FF0BC08091E20082FF07C080914E
:1059E000E1008B7F8093E1000E94EF288091DA0034
:1059F00080FF1FC08091D80080FF1BC08091DA001B
:105A00008E7F8093DA008091D90080FF0DC080E105
:105A100089BD82E189BD09B400FEFDCF81E080939C
:105A20007F020E94C82805C019BC10927F020E9404
:105A3000DA288091E10080FF19C08091E20080FFA8
:105A400015C08091E2008E7F8093E2008091E20099
:105A500080618093E2008091D80080628093D800BA
:105A600019BC85E080937F020E94E5288091E100C7
:105A700084FF30C08091E20084FF2CC080E189BDAA
:105A800082E189BD09B400FEFDCF8091D8008F7DF1
:105A90008093D8008091E1008F7E8093E100809117
:105AA000E2008F7E8093E2008091E200816080932B
:105AB000E20080917B02882311F084E007C080918E
:105AC000E30087FD02C081E001C083E080937F0294
:105AD0000E94E9288091E10083FF29C08091E200C3
